{
  "contractName": "Ownable",
  "abi": [
    {
      "inputs": [],
      "stateMutability": "nonpayable",
      "type": "constructor"
    },
    {
      "anonymous": false,
      "inputs": [
        {
          "indexed": true,
          "internalType": "address",
          "name": "previous_owner",
          "type": "address"
        },
        {
          "indexed": true,
          "internalType": "address",
          "name": "new_owner",
          "type": "address"
        }
      ],
      "name": "ownership_transferred",
      "type": "event"
    },
    {
      "inputs": [],
      "name": "owner",
      "outputs": [
        {
          "internalType": "address",
          "name": "",
          "type": "address"
        }
      ],
      "stateMutability": "view",
      "type": "function"
    },
    {
      "inputs": [],
      "name": "is_owner",
      "outputs": [
        {
          "internalType": "bool",
          "name": "",
          "type": "bool"
        }
      ],
      "stateMutability": "view",
      "type": "function"
    },
    {
      "inputs": [],
      "name": "renounce_ownership",
      "outputs": [],
      "stateMutability": "nonpayable",
      "type": "function"
    },
    {
      "inputs": [
        {
          "internalType": "address",
          "name": "new_owner",
          "type": "address"
        }
      ],
      "name": "transfer_ownership",
      "outputs": [],
      "stateMutability": "nonpayable",
      "type": "function"
    }
  ],
  "bytecode": "0x608060405234801561001057600080fd5b50336000806101000a81548173ffffffffffffffffffffffffffffffffffffffff021916908373ffffffffffffffffffffffffffffffffffffffff16021790555060008054906101000a900473ffffffffffffffffffffffffffffffffffffffff1673ffffffffffffffffffffffffffffffffffffffff16600073ffffffffffffffffffffffffffffffffffffffff167f8fcbba9525bf241e39cf6abc66193b18a47f114f0be2ea61e7b32a5fa64b5baa60405160405180910390a361043b806100db6000396000f3fe608060405234801561001057600080fd5b506004361061004c5760003560e01c80638da5cb5b14610051578063ad721ff61461006f578063b15e13ee1461008d578063f0350c0414610097575b600080fd5b6100596100b3565b6040516100669190610356565b60405180910390f35b6100776100dc565b604051610084919061038c565b60405180910390f35b610095610133565b005b6100b160048036038101906100ac91906103d8565b610202565b005b60008060009054906101000a900473ffffffffffffffffffffffffffffffffffffffff16905090565b60008060009054906101000a900473ffffffffffffffffffffffffffffffffffffffff1673ffffffffffffffffffffffffffffffffffffffff163373ffffffffffffffffffffffffffffffffffffffff1614905090565b61013b6100dc565b61014457600080fd5b600073ffffffffffffffffffffffffffffffffffffffff1660008054906101000a900473ffffffffffffffffffffffffffffffffffffffff1673ffffffffffffffffffffffffffffffffffffffff167f8fcbba9525bf241e39cf6abc66193b18a47f114f0be2ea61e7b32a5fa64b5baa60405160405180910390a360008060006101000a81548173ffffffffffffffffffffffffffffffffffffffff021916908373ffffffffffffffffffffffffffffffffffffffff160217905550565b61020a6100dc565b61021357600080fd5b61021c8161021f565b50565b600073ffffffffffffffffffffffffffffffffffffffff168173ffffffffffffffffffffffffffffffffffffffff160361025857600080fd5b8073ffffffffffffffffffffffffffffffffffffffff1660008054906101000a900473ffffffffffffffffffffffffffffffffffffffff1673ffffffffffffffffffffffffffffffffffffffff167f8fcbba9525bf241e39cf6abc66193b18a47f114f0be2ea61e7b32a5fa64b5baa60405160405180910390a3806000806101000a81548173ffffffffffffffffffffffffffffffffffffffff021916908373ffffffffffffffffffffffffffffffffffffffff16021790555050565b600073ffffffffffffffffffffffffffffffffffffffff82169050919050565b600061034082610315565b9050919050565b61035081610335565b82525050565b600060208201905061036b6000830184610347565b92915050565b60008115159050919050565b61038681610371565b82525050565b60006020820190506103a1600083018461037d565b92915050565b600080fd5b6103b581610335565b81146103c057600080fd5b50565b6000813590506103d2816103ac565b92915050565b6000602082840312156103ee576103ed6103a7565b5b60006103fc848285016103c3565b9150509291505056fea2646970667358221220ccf7851806b8fc67d49a4910532e36bc1bbccb387b2088db6b2f2273027f402664736f6c63430008110033",
  "immutableReferences": {},
  "source": "// SPDX-License-Identifier: MIT\npragma solidity ^0.8.17;\n\n/**\n* @title Ownable\n* @dev The Ownable contract has an owner address, and provides basic authorization control\n* functions, this simplifies the implementation of \"user permissions\".\n*/\ncontract Ownable {\n  address private _owner;\n\n  event ownership_transferred(\n    address indexed previous_owner,\n    address indexed new_owner\n  );\n\n  /**\n  * @dev The Ownable constructor sets the original `owner` of the contract to the sender\n  * account.\n  */\n  constructor() {\n    _owner = msg.sender;\n    emit ownership_transferred(address(0), _owner);\n  }\n\n  /**\n  * @return the address of the owner.\n  */\n  function owner() public view returns(address) {\n    return _owner;\n  }\n\n  /**\n  * @dev Throws if called by any account other than the owner.\n  */\n  modifier only_owner() {\n    require(is_owner());\n    _;\n  }\n\n  /**\n  * @return true if `msg.sender` is the owner of the contract.\n  */\n  function is_owner() public view returns(bool) {\n    return msg.sender == _owner;\n  }\n\n  /**\n  * @dev Allows the current owner to relinquish control of the contract.\n  * @notice Renouncing to ownership will leave the contract without an owner.\n  * It will not be possible to call the functions with the `onlyOwner`\n  * modifier anymore.\n  */\n  function renounce_ownership() public only_owner {\n    emit ownership_transferred(_owner, address(0));\n    _owner = address(0);\n  }\n\n  /**\n  * @dev Allows the current owner to transfer control of the contract to a newOwner.\n  * @param new_owner The address to transfer ownership to.\n  */\n  function transfer_ownership(address new_owner) public only_owner {\n    _transfer_ownership(new_owner);\n  }\n\n  /**\n  * @dev Transfers control of the contract to a newOwner.\n  * @param new_owner The address to transfer ownership to.\n  */\n  function _transfer_ownership(address new_owner) internal {\n    require(new_owner != address(0));\n    emit ownership_transferred(_owner, new_owner);\n    _owner = new_owner;\n  }\n}",
  "sourcePath": "/Users/davidcandreanu/Desktop/Year 4 Uni/Personal project/CarbonZero/carbon_zero/src/truffle/contracts/Ownable.sol",
  "compiler": {
    "name": "solc",
    "version": "0.8.17+commit.8df45f5f.Emscripten.clang"
  },
  "schemaVersion": "3.4.12",
  "updatedAt": "2023-03-01T18:35:10.529Z",
  "devdoc": {
    "details": "The Ownable contract has an owner address, and provides basic authorization control functions, this simplifies the implementation of \"user permissions\".",
    "kind": "dev",
    "methods": {
      "constructor": {
        "details": "The Ownable constructor sets the original `owner` of the contract to the sender account."
      },
      "is_owner()": {
        "returns": {
          "_0": "true if `msg.sender` is the owner of the contract."
        }
      },
      "owner()": {
        "returns": {
          "_0": "the address of the owner."
        }
      },
      "renounce_ownership()": {
        "details": "Allows the current owner to relinquish control of the contract."
      },
      "transfer_ownership(address)": {
        "details": "Allows the current owner to transfer control of the contract to a newOwner.",
        "params": {
          "new_owner": "The address to transfer ownership to."
        }
      }
    },
    "title": "Ownable",
    "version": 1
  },
  "userdoc": {
    "kind": "user",
    "methods": {
      "renounce_ownership()": {
        "notice": "Renouncing to ownership will leave the contract without an owner. It will not be possible to call the functions with the `onlyOwner` modifier anymore."
      }
    },
    "version": 1
  }
}