{
  "contractName": "SignUpContract",
  "abi": [
    {
      "inputs": [],
      "stateMutability": "nonpayable",
      "type": "constructor"
    },
    {
      "anonymous": false,
      "inputs": [
        {
          "indexed": true,
          "internalType": "address",
          "name": "previous_owner",
          "type": "address"
        },
        {
          "indexed": true,
          "internalType": "address",
          "name": "new_owner",
          "type": "address"
        }
      ],
      "name": "ownership_transferred",
      "type": "event"
    },
    {
      "anonymous": false,
      "inputs": [
        {
          "indexed": true,
          "internalType": "address",
          "name": "target_address",
          "type": "address"
        },
        {
          "indexed": true,
          "internalType": "uint8",
          "name": "status",
          "type": "uint8"
        }
      ],
      "name": "status_change",
      "type": "event"
    },
    {
      "inputs": [],
      "name": "is_owner",
      "outputs": [
        {
          "internalType": "bool",
          "name": "",
          "type": "bool"
        }
      ],
      "stateMutability": "view",
      "type": "function"
    },
    {
      "inputs": [],
      "name": "owner",
      "outputs": [
        {
          "internalType": "address",
          "name": "",
          "type": "address"
        }
      ],
      "stateMutability": "view",
      "type": "function"
    },
    {
      "inputs": [],
      "name": "renounce_ownership",
      "outputs": [],
      "stateMutability": "nonpayable",
      "type": "function"
    },
    {
      "inputs": [
        {
          "internalType": "address",
          "name": "new_owner",
          "type": "address"
        }
      ],
      "name": "transfer_ownership",
      "outputs": [],
      "stateMutability": "nonpayable",
      "type": "function"
    },
    {
      "inputs": [
        {
          "internalType": "address",
          "name": "_address",
          "type": "address"
        },
        {
          "internalType": "uint8",
          "name": "_status",
          "type": "uint8"
        }
      ],
      "name": "set_account_status",
      "outputs": [],
      "stateMutability": "nonpayable",
      "type": "function"
    },
    {
      "inputs": [
        {
          "internalType": "address",
          "name": "_address",
          "type": "address"
        }
      ],
      "name": "get_account_status",
      "outputs": [
        {
          "internalType": "uint8",
          "name": "",
          "type": "uint8"
        }
      ],
      "stateMutability": "view",
      "type": "function"
    },
    {
      "inputs": [
        {
          "internalType": "address",
          "name": "_address",
          "type": "address"
        }
      ],
      "name": "get_account_cid",
      "outputs": [
        {
          "internalType": "string",
          "name": "",
          "type": "string"
        }
      ],
      "stateMutability": "view",
      "type": "function"
    },
    {
      "inputs": [
        {
          "internalType": "address",
          "name": "_address",
          "type": "address"
        }
      ],
      "name": "get_account_base_year_emissions",
      "outputs": [
        {
          "internalType": "uint64",
          "name": "",
          "type": "uint64"
        }
      ],
      "stateMutability": "view",
      "type": "function"
    },
    {
      "inputs": [
        {
          "internalType": "address",
          "name": "_address",
          "type": "address"
        },
        {
          "internalType": "string",
          "name": "_cid",
          "type": "string"
        }
      ],
      "name": "set_account_cid",
      "outputs": [],
      "stateMutability": "nonpayable",
      "type": "function"
    },
    {
      "inputs": [
        {
          "internalType": "address",
          "name": "_address",
          "type": "address"
        }
      ],
      "name": "delete_account",
      "outputs": [],
      "stateMutability": "nonpayable",
      "type": "function"
    },
    {
      "inputs": [
        {
          "internalType": "string",
          "name": "_cid",
          "type": "string"
        },
        {
          "internalType": "uint64",
          "name": "_emissions",
          "type": "uint64"
        }
      ],
      "name": "request_access",
      "outputs": [],
      "stateMutability": "nonpayable",
      "type": "function"
    }
  ],
  "bytecode": "0x608060405234801561001057600080fd5b50336000806101000a81548173ffffffffffffffffffffffffffffffffffffffff021916908373ffffffffffffffffffffffffffffffffffffffff16021790555060008054906101000a900473ffffffffffffffffffffffffffffffffffffffff1673ffffffffffffffffffffffffffffffffffffffff16600073ffffffffffffffffffffffffffffffffffffffff167f8fcbba9525bf241e39cf6abc66193b18a47f114f0be2ea61e7b32a5fa64b5baa60405160405180910390a36003600260003373ffffffffffffffffffffffffffffffffffffffff1673ffffffffffffffffffffffffffffffffffffffff16815260200190815260200160002060006101000a81548160ff021916908360ff160217905550611300806101346000396000f3fe608060405234801561001057600080fd5b50600436106100a95760003560e01c8063ad721ff611610071578063ad721ff614610150578063b15e13ee1461016e578063babc039714610178578063bfdf5f87146101a8578063db3dfa54146101d8578063f0350c04146101f4576100a9565b80633fc689e1146100ae578063462cd0b9146100ca57806347436cdd146100e657806352f3ee08146101165780638da5cb5b14610132575b600080fd5b6100c860048036038101906100c39190610bf9565b610210565b005b6100e460048036038101906100df9190610cb3565b6103f7565b005b61010060048036038101906100fb9190610cb3565b610506565b60405161010d9190610cef565b60405180910390f35b610130600480360381019061012b9190610d0a565b610563565b005b61013a610622565b6040516101479190610d75565b60405180910390f35b61015861064b565b6040516101659190610dab565b60405180910390f35b6101766106a2565b005b610192600480360381019061018d9190610cb3565b610771565b60405161019f9190610de2565b60405180910390f35b6101c260048036038101906101bd9190610cb3565b6107c7565b6040516101cf9190610e7c565b60405180910390f35b6101f260048036038101906101ed9190610eca565b610898565b005b61020e60048036038101906102099190610cb3565b61094c565b005b6000600260003373ffffffffffffffffffffffffffffffffffffffff1673ffffffffffffffffffffffffffffffffffffffff16815260200190815260200160002060009054906101000a900460ff1660ff16146102a2576040517f08c379a000000000000000000000000000000000000000000000000000000000815260040161029990610f56565b60405180910390fd5b6001600260003373ffffffffffffffffffffffffffffffffffffffff1673ffffffffffffffffffffffffffffffffffffffff16815260200190815260200160002060006101000a81548160ff021916908360ff16021790555081600160003373ffffffffffffffffffffffffffffffffffffffff1673ffffffffffffffffffffffffffffffffffffffff1681526020019081526020016000209081610347919061118c565b5080600360003373ffffffffffffffffffffffffffffffffffffffff1673ffffffffffffffffffffffffffffffffffffffff16815260200190815260200160002060006101000a81548167ffffffffffffffff021916908367ffffffffffffffff16021790555060013373ffffffffffffffffffffffffffffffffffffffff167f5644960947ebbe0066bfd97d6481b4e13e2f3d45d0821c3c73cc02190c6490e160405160405180910390a35050565b8073ffffffffffffffffffffffffffffffffffffffff163373ffffffffffffffffffffffffffffffffffffffff1614610465576040517f08c379a000000000000000000000000000000000000000000000000000000000815260040161045c906112aa565b60405180910390fd5b6000600260008373ffffffffffffffffffffffffffffffffffffffff1673ffffffffffffffffffffffffffffffffffffffff16815260200190815260200160002060006101000a81548160ff021916908360ff16021790555060008173ffffffffffffffffffffffffffffffffffffffff167f5644960947ebbe0066bfd97d6481b4e13e2f3d45d0821c3c73cc02190c6490e160405160405180910390a350565b6000600360008373ffffffffffffffffffffffffffffffffffffffff1673ffffffffffffffffffffffffffffffffffffffff16815260200190815260200160002060009054906101000a900467ffffffffffffffff169050919050565b8173ffffffffffffffffffffffffffffffffffffffff163373ffffffffffffffffffffffffffffffffffffffff16146105d1576040517f08c379a00000000000000000000000000000000000000000000000000000000081526004016105c8906112aa565b60405180910390fd5b80600160008473ffffffffffffffffffffffffffffffffffffffff1673ffffffffffffffffffffffffffffffffffffffff168152602001908152602001600020908161061d919061118c565b505050565b60008060009054906101000a900473ffffffffffffffffffffffffffffffffffffffff16905090565b60008060009054906101000a900473ffffffffffffffffffffffffffffffffffffffff1673ffffffffffffffffffffffffffffffffffffffff163373ffffffffffffffffffffffffffffffffffffffff1614905090565b6106aa61064b565b6106b357600080fd5b600073ffffffffffffffffffffffffffffffffffffffff1660008054906101000a900473ffffffffffffffffffffffffffffffffffffffff1673ffffffffffffffffffffffffffffffffffffffff167f8fcbba9525bf241e39cf6abc66193b18a47f114f0be2ea61e7b32a5fa64b5baa60405160405180910390a360008060006101000a81548173ffffffffffffffffffffffffffffffffffffffff021916908373ffffffffffffffffffffffffffffffffffffffff160217905550565b6000600260008373ffffffffffffffffffffffffffffffffffffffff1673ffffffffffffffffffffffffffffffffffffffff16815260200190815260200160002060009054906101000a900460ff169050919050565b6060600160008373ffffffffffffffffffffffffffffffffffffffff1673ffffffffffffffffffffffffffffffffffffffff168152602001908152602001600020805461081390610fa5565b80601f016020809104026020016040519081016040528092919081815260200182805461083f90610fa5565b801561088c5780601f106108615761010080835404028352916020019161088c565b820191906000526020600020905b81548152906001019060200180831161086f57829003601f168201915b50505050509050919050565b6108a061064b565b6108a957600080fd5b80600260008473ffffffffffffffffffffffffffffffffffffffff1673ffffffffffffffffffffffffffffffffffffffff16815260200190815260200160002060006101000a81548160ff021916908360ff1602179055508060ff168273ffffffffffffffffffffffffffffffffffffffff167f5644960947ebbe0066bfd97d6481b4e13e2f3d45d0821c3c73cc02190c6490e160405160405180910390a35050565b61095461064b565b61095d57600080fd5b61096681610969565b50565b600073ffffffffffffffffffffffffffffffffffffffff168173ffffffffffffffffffffffffffffffffffffffff16036109a257600080fd5b8073ffffffffffffffffffffffffffffffffffffffff1660008054906101000a900473ffffffffffffffffffffffffffffffffffffffff1673ffffffffffffffffffffffffffffffffffffffff167f8fcbba9525bf241e39cf6abc66193b18a47f114f0be2ea61e7b32a5fa64b5baa60405160405180910390a3806000806101000a81548173ffffffffffffffffffffffffffffffffffffffff021916908373ffffffffffffffffffffffffffffffffffffffff16021790555050565b6000604051905090565b600080fd5b600080fd5b600080fd5b600080fd5b6000601f19601f8301169050919050565b7f4e487b7100000000000000000000000000000000000000000000000000000000600052604160045260246000fd5b610ac682610a7d565b810181811067ffffffffffffffff82111715610ae557610ae4610a8e565b5b80604052505050565b6000610af8610a5f565b9050610b048282610abd565b919050565b600067ffffffffffffffff821115610b2457610b23610a8e565b5b610b2d82610a7d565b9050602081019050919050565b82818337600083830152505050565b6000610b5c610b5784610b09565b610aee565b905082815260208101848484011115610b7857610b77610a78565b5b610b83848285610b3a565b509392505050565b600082601f830112610ba057610b9f610a73565b5b8135610bb0848260208601610b49565b91505092915050565b600067ffffffffffffffff82169050919050565b610bd681610bb9565b8114610be157600080fd5b50565b600081359050610bf381610bcd565b92915050565b60008060408385031215610c1057610c0f610a69565b5b600083013567ffffffffffffffff811115610c2e57610c2d610a6e565b5b610c3a85828601610b8b565b9250506020610c4b85828601610be4565b9150509250929050565b600073ffffffffffffffffffffffffffffffffffffffff82169050919050565b6000610c8082610c55565b9050919050565b610c9081610c75565b8114610c9b57600080fd5b50565b600081359050610cad81610c87565b92915050565b600060208284031215610cc957610cc8610a69565b5b6000610cd784828501610c9e565b91505092915050565b610ce981610bb9565b82525050565b6000602082019050610d046000830184610ce0565b92915050565b60008060408385031215610d2157610d20610a69565b5b6000610d2f85828601610c9e565b925050602083013567ffffffffffffffff811115610d5057610d4f610a6e565b5b610d5c85828601610b8b565b9150509250929050565b610d6f81610c75565b82525050565b6000602082019050610d8a6000830184610d66565b92915050565b60008115159050919050565b610da581610d90565b82525050565b6000602082019050610dc06000830184610d9c565b92915050565b600060ff82169050919050565b610ddc81610dc6565b82525050565b6000602082019050610df76000830184610dd3565b92915050565b600081519050919050565b600082825260208201905092915050565b60005b83811015610e37578082015181840152602081019050610e1c565b60008484015250505050565b6000610e4e82610dfd565b610e588185610e08565b9350610e68818560208601610e19565b610e7181610a7d565b840191505092915050565b60006020820190508181036000830152610e968184610e43565b905092915050565b610ea781610dc6565b8114610eb257600080fd5b50565b600081359050610ec481610e9e565b92915050565b60008060408385031215610ee157610ee0610a69565b5b6000610eef85828601610c9e565b9250506020610f0085828601610eb5565b9150509250929050565b7f4532000000000000000000000000000000000000000000000000000000000000600082015250565b6000610f40600283610e08565b9150610f4b82610f0a565b602082019050919050565b60006020820190508181036000830152610f6f81610f33565b9050919050565b7f4e487b7100000000000000000000000000000000000000000000000000000000600052602260045260246000fd5b60006002820490506001821680610fbd57607f821691505b602082108103610fd057610fcf610f76565b5b50919050565b60008190508160005260206000209050919050565b60006020601f8301049050919050565b600082821b905092915050565b6000600883026110387fffffffffffffffffffffffffffffffffffffffffffffffffffffffffffffffff82610ffb565b6110428683610ffb565b95508019841693508086168417925050509392505050565b6000819050919050565b6000819050919050565b600061108961108461107f8461105a565b611064565b61105a565b9050919050565b6000819050919050565b6110a38361106e565b6110b76110af82611090565b848454611008565b825550505050565b600090565b6110cc6110bf565b6110d781848461109a565b505050565b5b818110156110fb576110f06000826110c4565b6001810190506110dd565b5050565b601f8211156111405761111181610fd6565b61111a84610feb565b81016020851015611129578190505b61113d61113585610feb565b8301826110dc565b50505b505050565b600082821c905092915050565b600061116360001984600802611145565b1980831691505092915050565b600061117c8383611152565b9150826002028217905092915050565b61119582610dfd565b67ffffffffffffffff8111156111ae576111ad610a8e565b5b6111b88254610fa5565b6111c38282856110ff565b600060209050601f8311600181146111f657600084156111e4578287015190505b6111ee8582611170565b865550611256565b601f19841661120486610fd6565b60005b8281101561122c57848901518255600182019150602085019450602081019050611207565b868310156112495784890151611245601f891682611152565b8355505b6001600288020188555050505b505050505050565b7f4531000000000000000000000000000000000000000000000000000000000000600082015250565b6000611294600283610e08565b915061129f8261125e565b602082019050919050565b600060208201905081810360008301526112c381611287565b905091905056fea2646970667358221220b470c55fd85aac2d61e4064cf34c6b0591d66cb4562e30a749d23d677126790664736f6c63430008110033",
  "immutableReferences": {},
  "source": "// SPDX-License-Identifier: MIT\npragma solidity ^0.8.17;\nimport \"./Ownable.sol\";\n\ncontract SignUpContract is Ownable{\n    mapping (address => string) private address_account_cid;\n    mapping (address => uint8) private address_account_status;\n    mapping (address => uint64) private address_base_year_emissions;\n\n    event status_change(address indexed target_address,\n        uint8 indexed status);\n\n    modifier is_approved() {\n        require(address_account_status[msg.sender] == 2);\n        _;\n    }\n\n    constructor() public{\n        address_account_status[msg.sender] = 3;\n    }\n\n    function set_account_status (address _address, uint8 _status) external only_owner {\n        address_account_status[_address] = _status;\n        emit status_change(_address, _status);\n    }\n\n    function get_account_status (address _address) public view returns (uint8) {\n        return address_account_status[_address];\n    }\n\n    function get_account_cid (address _address) external view returns (string memory) {\n        return address_account_cid[_address];\n    }\n\n    function get_account_base_year_emissions (address _address) public view returns (uint64) {\n        return address_base_year_emissions[_address];\n    }\n\n    function set_account_cid (address _address, string memory _cid) external {\n        require(msg.sender == _address, \"E1\");\n        address_account_cid[_address] = _cid;\n    }\n\n    function delete_account (address _address) external {\n        require(msg.sender == _address, \"E1\");\n        address_account_status[_address] = 0;\n        emit status_change(_address, 0);\n    }\n\n    function request_access (string memory _cid, uint64 _emissions) external {\n        require(address_account_status[msg.sender] == 0, \"E2\");\n\n        address_account_status[msg.sender] = 1;\n        address_account_cid[msg.sender] = _cid;\n        address_base_year_emissions[msg.sender] = _emissions;\n\n        emit status_change(msg.sender, 1);\n    }\n}",
  "sourcePath": "/Users/davidcandreanu/Desktop/Year 4 Uni/Personal project/CarbonZero/carbon_zero/src/truffle/contracts/SignUpContract.sol",
  "compiler": {
    "name": "solc",
    "version": "0.8.17+commit.8df45f5f.Emscripten.clang"
  },
  "schemaVersion": "3.4.12",
  "updatedAt": "2023-03-22T00:19:30.492Z",
  "devdoc": {
    "kind": "dev",
    "methods": {
      "is_owner()": {
        "returns": {
          "_0": "true if `msg.sender` is the owner of the contract."
        }
      },
      "owner()": {
        "returns": {
          "_0": "the address of the owner."
        }
      },
      "renounce_ownership()": {
        "details": "Allows the current owner to relinquish control of the contract."
      },
      "transfer_ownership(address)": {
        "details": "Allows the current owner to transfer control of the contract to a newOwner.",
        "params": {
          "new_owner": "The address to transfer ownership to."
        }
      }
    },
    "version": 1
  },
  "userdoc": {
    "kind": "user",
    "methods": {
      "renounce_ownership()": {
        "notice": "Renouncing to ownership will leave the contract without an owner. It will not be possible to call the functions with the `onlyOwner` modifier anymore."
      }
    },
    "version": 1
  }
}