{
  "contractName": "TradingPlatform",
  "abi": [
    {
      "anonymous": false,
      "inputs": [
        {
          "indexed": true,
          "internalType": "address",
          "name": "seller_address",
          "type": "address"
        },
        {
          "indexed": true,
          "internalType": "address",
          "name": "buyer_address",
          "type": "address"
        },
        {
          "indexed": false,
          "internalType": "uint64",
          "name": "amount",
          "type": "uint64"
        },
        {
          "indexed": false,
          "internalType": "uint256",
          "name": "price",
          "type": "uint256"
        }
      ],
      "name": "buy_event",
      "type": "event"
    },
    {
      "anonymous": false,
      "inputs": [
        {
          "indexed": true,
          "internalType": "address",
          "name": "buyer_address",
          "type": "address"
        },
        {
          "indexed": false,
          "internalType": "uint64",
          "name": "amount",
          "type": "uint64"
        },
        {
          "indexed": false,
          "internalType": "uint256",
          "name": "price",
          "type": "uint256"
        }
      ],
      "name": "buy_order_event",
      "type": "event"
    },
    {
      "anonymous": false,
      "inputs": [
        {
          "indexed": false,
          "internalType": "uint8",
          "name": "trading_period_length",
          "type": "uint8"
        },
        {
          "indexed": false,
          "internalType": "uint8",
          "name": "target_reduction",
          "type": "uint8"
        },
        {
          "indexed": true,
          "internalType": "uint256",
          "name": "timestamp",
          "type": "uint256"
        }
      ],
      "name": "minted",
      "type": "event"
    },
    {
      "anonymous": false,
      "inputs": [
        {
          "indexed": true,
          "internalType": "address",
          "name": "previous_owner",
          "type": "address"
        },
        {
          "indexed": true,
          "internalType": "address",
          "name": "new_owner",
          "type": "address"
        }
      ],
      "name": "ownership_transferred",
      "type": "event"
    },
    {
      "anonymous": false,
      "inputs": [
        {
          "indexed": true,
          "internalType": "address",
          "name": "seller_address",
          "type": "address"
        },
        {
          "indexed": false,
          "internalType": "uint64",
          "name": "amount",
          "type": "uint64"
        },
        {
          "indexed": false,
          "internalType": "uint256",
          "name": "price",
          "type": "uint256"
        }
      ],
      "name": "sell_order_event",
      "type": "event"
    },
    {
      "anonymous": false,
      "inputs": [
        {
          "indexed": true,
          "internalType": "address",
          "name": "target_address",
          "type": "address"
        },
        {
          "indexed": true,
          "internalType": "uint8",
          "name": "status",
          "type": "uint8"
        }
      ],
      "name": "status_change",
      "type": "event"
    },
    {
      "anonymous": false,
      "inputs": [
        {
          "indexed": true,
          "internalType": "bool",
          "name": "new_status",
          "type": "bool"
        }
      ],
      "name": "trading_status_changed",
      "type": "event"
    },
    {
      "inputs": [
        {
          "internalType": "address",
          "name": "_address",
          "type": "address"
        }
      ],
      "name": "delete_account",
      "outputs": [],
      "stateMutability": "nonpayable",
      "type": "function"
    },
    {
      "inputs": [
        {
          "internalType": "address",
          "name": "_address",
          "type": "address"
        }
      ],
      "name": "get_account_base_year_emissions",
      "outputs": [
        {
          "internalType": "uint64",
          "name": "",
          "type": "uint64"
        }
      ],
      "stateMutability": "view",
      "type": "function",
      "constant": true
    },
    {
      "inputs": [
        {
          "internalType": "address",
          "name": "_address",
          "type": "address"
        }
      ],
      "name": "get_account_cid",
      "outputs": [
        {
          "internalType": "string",
          "name": "",
          "type": "string"
        }
      ],
      "stateMutability": "view",
      "type": "function",
      "constant": true
    },
    {
      "inputs": [
        {
          "internalType": "address",
          "name": "_address",
          "type": "address"
        }
      ],
      "name": "get_account_status",
      "outputs": [
        {
          "internalType": "uint8",
          "name": "",
          "type": "uint8"
        }
      ],
      "stateMutability": "view",
      "type": "function",
      "constant": true
    },
    {
      "inputs": [],
      "name": "is_owner",
      "outputs": [
        {
          "internalType": "bool",
          "name": "",
          "type": "bool"
        }
      ],
      "stateMutability": "view",
      "type": "function",
      "constant": true
    },
    {
      "inputs": [],
      "name": "owner",
      "outputs": [
        {
          "internalType": "address",
          "name": "",
          "type": "address"
        }
      ],
      "stateMutability": "view",
      "type": "function",
      "constant": true
    },
    {
      "inputs": [],
      "name": "renounce_ownership",
      "outputs": [],
      "stateMutability": "nonpayable",
      "type": "function"
    },
    {
      "inputs": [
        {
          "internalType": "string",
          "name": "_cid",
          "type": "string"
        },
        {
          "internalType": "uint64",
          "name": "_emissions",
          "type": "uint64"
        }
      ],
      "name": "request_access",
      "outputs": [],
      "stateMutability": "nonpayable",
      "type": "function"
    },
    {
      "inputs": [
        {
          "internalType": "address",
          "name": "_address",
          "type": "address"
        },
        {
          "internalType": "string",
          "name": "_cid",
          "type": "string"
        }
      ],
      "name": "set_account_cid",
      "outputs": [],
      "stateMutability": "nonpayable",
      "type": "function"
    },
    {
      "inputs": [
        {
          "internalType": "address",
          "name": "_address",
          "type": "address"
        },
        {
          "internalType": "uint8",
          "name": "_status",
          "type": "uint8"
        }
      ],
      "name": "set_account_status",
      "outputs": [],
      "stateMutability": "nonpayable",
      "type": "function"
    },
    {
      "inputs": [
        {
          "internalType": "address",
          "name": "new_owner",
          "type": "address"
        }
      ],
      "name": "transfer_ownership",
      "outputs": [],
      "stateMutability": "nonpayable",
      "type": "function"
    },
    {
      "inputs": [
        {
          "internalType": "bool",
          "name": "_status",
          "type": "bool"
        }
      ],
      "name": "set_trading_open",
      "outputs": [],
      "stateMutability": "nonpayable",
      "type": "function"
    },
    {
      "inputs": [],
      "name": "get_trading_open",
      "outputs": [
        {
          "internalType": "bool",
          "name": "",
          "type": "bool"
        }
      ],
      "stateMutability": "view",
      "type": "function",
      "constant": true
    },
    {
      "inputs": [
        {
          "internalType": "address",
          "name": "_address",
          "type": "address"
        }
      ],
      "name": "get_allowance",
      "outputs": [
        {
          "internalType": "uint64",
          "name": "",
          "type": "uint64"
        }
      ],
      "stateMutability": "view",
      "type": "function",
      "constant": true
    },
    {
      "inputs": [
        {
          "internalType": "address[]",
          "name": "_pending_addresses",
          "type": "address[]"
        },
        {
          "internalType": "uint8",
          "name": "_trading_period_length",
          "type": "uint8"
        },
        {
          "internalType": "uint8",
          "name": "_target_reduction",
          "type": "uint8"
        }
      ],
      "name": "mint",
      "outputs": [],
      "stateMutability": "nonpayable",
      "type": "function"
    },
    {
      "inputs": [
        {
          "internalType": "uint64",
          "name": "_amount",
          "type": "uint64"
        },
        {
          "internalType": "uint256",
          "name": "_price",
          "type": "uint256"
        }
      ],
      "name": "create_sell_order",
      "outputs": [],
      "stateMutability": "nonpayable",
      "type": "function"
    },
    {
      "inputs": [],
      "name": "delete_sell_order",
      "outputs": [],
      "stateMutability": "nonpayable",
      "type": "function"
    },
    {
      "inputs": [
        {
          "internalType": "address payable",
          "name": "_seller",
          "type": "address"
        },
        {
          "internalType": "uint64",
          "name": "_amount",
          "type": "uint64"
        },
        {
          "internalType": "uint64",
          "name": "_on_sale",
          "type": "uint64"
        },
        {
          "internalType": "uint256",
          "name": "_price",
          "type": "uint256"
        }
      ],
      "name": "buy",
      "outputs": [],
      "stateMutability": "payable",
      "type": "function",
      "payable": true
    },
    {
      "inputs": [
        {
          "internalType": "uint64",
          "name": "_amount",
          "type": "uint64"
        },
        {
          "internalType": "uint256",
          "name": "_price",
          "type": "uint256"
        }
      ],
      "name": "create_buy_order",
      "outputs": [],
      "stateMutability": "payable",
      "type": "function",
      "payable": true
    },
    {
      "inputs": [
        {
          "internalType": "uint64",
          "name": "_amount",
          "type": "uint64"
        },
        {
          "internalType": "uint256",
          "name": "_price",
          "type": "uint256"
        }
      ],
      "name": "delete_buy_order",
      "outputs": [],
      "stateMutability": "nonpayable",
      "type": "function"
    },
    {
      "inputs": [
        {
          "internalType": "address",
          "name": "_buyer",
          "type": "address"
        },
        {
          "internalType": "uint64",
          "name": "_amount",
          "type": "uint64"
        },
        {
          "internalType": "uint64",
          "name": "_on_request",
          "type": "uint64"
        },
        {
          "internalType": "uint256",
          "name": "_price",
          "type": "uint256"
        }
      ],
      "name": "sell",
      "outputs": [],
      "stateMutability": "nonpayable",
      "type": "function"
    },
    {
      "inputs": [],
      "name": "get_balance",
      "outputs": [
        {
          "internalType": "uint256",
          "name": "",
          "type": "uint256"
        }
      ],
      "stateMutability": "view",
      "type": "function",
      "constant": true
    },
    {
      "inputs": [],
      "name": "withdraw_eth_after_trading_close",
      "outputs": [],
      "stateMutability": "nonpayable",
      "type": "function"
    }
  ],
  "bytecode": "0x608060405234801561001057600080fd5b50336000806101000a81548173ffffffffffffffffffffffffffffffffffffffff021916908373ffffffffffffffffffffffffffffffffffffffff16021790555060008054906101000a900473ffffffffffffffffffffffffffffffffffffffff1673ffffffffffffffffffffffffffffffffffffffff16600073ffffffffffffffffffffffffffffffffffffffff167f8fcbba9525bf241e39cf6abc66193b18a47f114f0be2ea61e7b32a5fa64b5baa60405160405180910390a36003600260003373ffffffffffffffffffffffffffffffffffffffff1673ffffffffffffffffffffffffffffffffffffffff16815260200190815260200160002060006101000a81548160ff021916908360ff160217905550613bca806101346000396000f3fe6080604052600436106101405760003560e01c8063a3ec532b116100b6578063c1cfb99a1161006f578063c1cfb99a14610421578063c8f7ee8f1461044c578063db3dfa5414610463578063dcbb6d561461048c578063dce8e9fc146104a8578063f0350c04146104d357610140565b8063a3ec532b146102ff578063ad13dde61461033c578063ad721ff614610365578063b15e13ee14610390578063babc0397146103a7578063bfdf5f87146103e457610140565b8063448157dc11610108578063448157dc14610212578063462cd0b91461022e57806347436cdd1461025757806352f3ee08146102945780638da5cb5b146102bd5780638e27940f146102e857610140565b80630d10f97b146101455780632dc19b841461016e57806330e0b7d9146101975780633ec71e86146101c05780633fc689e1146101e9575b600080fd5b34801561015157600080fd5b5061016c60048036038101906101679190612619565b6104fc565b005b34801561017a57600080fd5b5061019560048036038101906101909190612836565b610559565b005b3480156101a357600080fd5b506101be60048036038101906101b9919061291b565b61084d565b005b3480156101cc57600080fd5b506101e760048036038101906101e2919061291b565b610a5a565b005b3480156101f557600080fd5b50610210600480360381019061020b9190612a10565b610cf2565b005b61022c60048036038101906102279190612aaa565b610ed9565b005b34801561023a57600080fd5b5061025560048036038101906102509190612b11565b611482565b005b34801561026357600080fd5b5061027e60048036038101906102799190612b11565b611591565b60405161028b9190612b4d565b60405180910390f35b3480156102a057600080fd5b506102bb60048036038101906102b69190612b68565b6115ee565b005b3480156102c957600080fd5b506102d26116ad565b6040516102df9190612bd3565b60405180910390f35b3480156102f457600080fd5b506102fd6116d6565b005b34801561030b57600080fd5b5061032660048036038101906103219190612b11565b6117be565b6040516103339190612b4d565b60405180910390f35b34801561034857600080fd5b50610363600480360381019061035e9190612bee565b61181b565b005b34801561037157600080fd5b5061037a611e31565b6040516103879190612c64565b60405180910390f35b34801561039c57600080fd5b506103a5611e88565b005b3480156103b357600080fd5b506103ce60048036038101906103c99190612b11565b611f57565b6040516103db9190612c8e565b60405180910390f35b3480156103f057600080fd5b5061040b60048036038101906104069190612b11565b611fad565b6040516104189190612d28565b60405180910390f35b34801561042d57600080fd5b5061043661207e565b6040516104439190612d59565b60405180910390f35b34801561045857600080fd5b50610461612086565b005b34801561046f57600080fd5b5061048a60048036038101906104859190612d74565b6121a9565b005b6104a660048036038101906104a1919061291b565b61225d565b005b3480156104b457600080fd5b506104bd6124a3565b6040516104ca9190612c64565b60405180910390f35b3480156104df57600080fd5b506104fa60048036038101906104f59190612b11565b6124ba565b005b610504611e31565b61050d57600080fd5b80600760086101000a81548160ff0219169083151502179055508015157fa601aaf9019ced939c778e7f92510dc1cb9237071acb2399e62be6c3d78d2b8760405160405180910390a250565b610561611e31565b61056a57600080fd5b60008060005b855181101561070257600261059e87838151811061059157610590612db4565b5b6020026020010151611f57565b60ff16146105e1576040517f08c379a00000000000000000000000000000000000000000000000000000000081526004016105d890612e2f565b60405180910390fd5b6106048682815181106105f7576105f6612db4565b5b6020026020010151611591565b915060648460ff16836106179190612e7e565b6106219190612eea565b8261062c9190612f1b565b91508460ff168261063d9190612e7e565b9150816004600088848151811061065757610656612db4565b5b602002602001015173ffffffffffffffffffffffffffffffffffffffff1673ffffffffffffffffffffffffffffffffffffffff16815260200190815260200160002060008282829054906101000a900467ffffffffffffffff166106bb9190612f57565b92506101000a81548167ffffffffffffffff021916908367ffffffffffffffff16021790555081836106ed9190612f57565b925080806106fa90612f93565b915050610570565b50600060646005846107149190612e7e565b61071e9190612eea565b9050808361072c9190612f57565b925080600460003373ffffffffffffffffffffffffffffffffffffffff1673ffffffffffffffffffffffffffffffffffffffff16815260200190815260200160002060008282829054906101000a900467ffffffffffffffff166107909190612f57565b92506101000a81548167ffffffffffffffff021916908367ffffffffffffffff16021790555082600760008282829054906101000a900467ffffffffffffffff166107db9190612f57565b92506101000a81548167ffffffffffffffff021916908367ffffffffffffffff16021790555061080b60016104fc565b427fc9848771289e04402c17f4ab6ccc283f14052ffdf3f085ccaac5ec9c1bbdd7ee868660405161083d929190612fdb565b60405180910390a2505050505050565b600660003373ffffffffffffffffffffffffffffffffffffffff1673ffffffffffffffffffffffffffffffffffffffff1681526020019081526020016000205482826040516020016108a092919061305b565b60405160208183030381529060405280519060200120146108f6576040517f08c379a00000000000000000000000000000000000000000000000000000000081526004016108ed906130d3565b60405180910390fd5b600033905060008173ffffffffffffffffffffffffffffffffffffffff16838567ffffffffffffffff1661092a91906130f3565b60405161093690613166565b60006040518083038185875af1925050503d8060008114610973576040519150601f19603f3d011682016040523d82523d6000602084013e610978565b606091505b50509050806109bc576040517f08c379a00000000000000000000000000000000000000000000000000000000081526004016109b3906131c7565b60405180910390fd5b6000801b600660003373ffffffffffffffffffffffffffffffffffffffff1673ffffffffffffffffffffffffffffffffffffffff168152602001908152602001600020819055503373ffffffffffffffffffffffffffffffffffffffff167f531329981aec67b349deec08dbaf6b78bf267185fd02a5cce08f5a702d43e53b600080604051610a4c92919061325d565b60405180910390a250505050565b60028060003373ffffffffffffffffffffffffffffffffffffffff1673ffffffffffffffffffffffffffffffffffffffff16815260200190815260200160002060009054906101000a900460ff1660ff1614610ab557600080fd5b600760089054906101000a900460ff16610b04576040517f08c379a0000000000000000000000000000000000000000000000000000000008152600401610afb906132d2565b60405180910390fd5b8167ffffffffffffffff16600460003373ffffffffffffffffffffffffffffffffffffffff1673ffffffffffffffffffffffffffffffffffffffff16815260200190815260200160002060009054906101000a900467ffffffffffffffff1667ffffffffffffffff161015610bae576040517f08c379a0000000000000000000000000000000000000000000000000000000008152600401610ba59061333e565b60405180910390fd5b6000801b600560003373ffffffffffffffffffffffffffffffffffffffff1673ffffffffffffffffffffffffffffffffffffffff1681526020019081526020016000205414610c32576040517f08c379a0000000000000000000000000000000000000000000000000000000008152600401610c29906133aa565b60405180910390fd5b8181604051602001610c4592919061305b565b60405160208183030381529060405280519060200120600560003373ffffffffffffffffffffffffffffffffffffffff1673ffffffffffffffffffffffffffffffffffffffff168152602001908152602001600020819055503373ffffffffffffffffffffffffffffffffffffffff167fb447b075df31e77b70e0b47900bf05f6bb085e2b37db217bdba293c96708eaef8383604051610ce69291906133ca565b60405180910390a25050565b6000600260003373ffffffffffffffffffffffffffffffffffffffff1673ffffffffffffffffffffffffffffffffffffffff16815260200190815260200160002060009054906101000a900460ff1660ff1614610d84576040517f08c379a0000000000000000000000000000000000000000000000000000000008152600401610d7b9061343f565b60405180910390fd5b6001600260003373ffffffffffffffffffffffffffffffffffffffff1673ffffffffffffffffffffffffffffffffffffffff16815260200190815260200160002060006101000a81548160ff021916908360ff16021790555081600160003373ffffffffffffffffffffffffffffffffffffffff1673ffffffffffffffffffffffffffffffffffffffff1681526020019081526020016000209081610e299190613661565b5080600360003373ffffffffffffffffffffffffffffffffffffffff1673ffffffffffffffffffffffffffffffffffffffff16815260200190815260200160002060006101000a81548167ffffffffffffffff021916908367ffffffffffffffff16021790555060013373ffffffffffffffffffffffffffffffffffffffff167f5644960947ebbe0066bfd97d6481b4e13e2f3d45d0821c3c73cc02190c6490e160405160405180910390a35050565b60028060003373ffffffffffffffffffffffffffffffffffffffff1673ffffffffffffffffffffffffffffffffffffffff16815260200190815260200160002060009054906101000a900460ff1660ff1614610f3457600080fd5b600760089054906101000a900460ff16610f83576040517f08c379a0000000000000000000000000000000000000000000000000000000008152600401610f7a906132d2565b60405180910390fd5b600560008573ffffffffffffffffffffffffffffffffffffffff1673ffffffffffffffffffffffffffffffffffffffff168152602001908152602001600020548282604051602001610fd692919061305b565b604051602081830303815290604052805190602001201461102c576040517f08c379a00000000000000000000000000000000000000000000000000000000081526004016110239061377f565b60405180910390fd5b8167ffffffffffffffff168367ffffffffffffffff161115611083576040517f08c379a000000000000000000000000000000000000000000000000000000000815260040161107a906137eb565b60405180910390fd5b808367ffffffffffffffff1661109991906130f3565b3410156110db576040517f08c379a00000000000000000000000000000000000000000000000000000000081526004016110d290613857565b60405180910390fd5b60008473ffffffffffffffffffffffffffffffffffffffff163460405161110190613166565b60006040518083038185875af1925050503d806000811461113e576040519150601f19603f3d011682016040523d82523d6000602084013e611143565b606091505b5050905080611187576040517f08c379a000000000000000000000000000000000000000000000000000000000815260040161117e906131c7565b60405180910390fd5b83600460008773ffffffffffffffffffffffffffffffffffffffff1673ffffffffffffffffffffffffffffffffffffffff16815260200190815260200160002060008282829054906101000a900467ffffffffffffffff166111e99190612f1b565b92506101000a81548167ffffffffffffffff021916908367ffffffffffffffff16021790555083600460003373ffffffffffffffffffffffffffffffffffffffff1673ffffffffffffffffffffffffffffffffffffffff16815260200190815260200160002060008282829054906101000a900467ffffffffffffffff166112719190612f57565b92506101000a81548167ffffffffffffffff021916908367ffffffffffffffff160217905550600084846112a59190612f1b565b905060008167ffffffffffffffff1603611356576000801b600560008873ffffffffffffffffffffffffffffffffffffffff1673ffffffffffffffffffffffffffffffffffffffff168152602001908152602001600020819055508573ffffffffffffffffffffffffffffffffffffffff167fb447b075df31e77b70e0b47900bf05f6bb085e2b37db217bdba293c96708eaef826000604051611349929190613877565b60405180910390a2611413565b808360405160200161136992919061305b565b60405160208183030381529060405280519060200120600560008873ffffffffffffffffffffffffffffffffffffffff1673ffffffffffffffffffffffffffffffffffffffff168152602001908152602001600020819055508573ffffffffffffffffffffffffffffffffffffffff167fb447b075df31e77b70e0b47900bf05f6bb085e2b37db217bdba293c96708eaef828560405161140a9291906133ca565b60405180910390a25b3373ffffffffffffffffffffffffffffffffffffffff168673ffffffffffffffffffffffffffffffffffffffff167f29698b260c7548225598835e7a364fdd8848dbe638fe7c8321ade0bb288a3f5787866040516114729291906133ca565b60405180910390a3505050505050565b8073ffffffffffffffffffffffffffffffffffffffff163373ffffffffffffffffffffffffffffffffffffffff16146114f0576040517f08c379a00000000000000000000000000000000000000000000000000000000081526004016114e7906138ec565b60405180910390fd5b6000600260008373ffffffffffffffffffffffffffffffffffffffff1673ffffffffffffffffffffffffffffffffffffffff16815260200190815260200160002060006101000a81548160ff021916908360ff16021790555060008173ffffffffffffffffffffffffffffffffffffffff167f5644960947ebbe0066bfd97d6481b4e13e2f3d45d0821c3c73cc02190c6490e160405160405180910390a350565b6000600360008373ffffffffffffffffffffffffffffffffffffffff1673ffffffffffffffffffffffffffffffffffffffff16815260200190815260200160002060009054906101000a900467ffffffffffffffff169050919050565b8173ffffffffffffffffffffffffffffffffffffffff163373ffffffffffffffffffffffffffffffffffffffff161461165c576040517f08c379a0000000000000000000000000000000000000000000000000000000008152600401611653906138ec565b60405180910390fd5b80600160008473ffffffffffffffffffffffffffffffffffffffff1673ffffffffffffffffffffffffffffffffffffffff16815260200190815260200160002090816116a89190613661565b505050565b60008060009054906101000a900473ffffffffffffffffffffffffffffffffffffffff16905090565b6000801b600560003373ffffffffffffffffffffffffffffffffffffffff1673ffffffffffffffffffffffffffffffffffffffff168152602001908152602001600020540361172457600080fd5b6000801b600560003373ffffffffffffffffffffffffffffffffffffffff1673ffffffffffffffffffffffffffffffffffffffff168152602001908152602001600020819055503373ffffffffffffffffffffffffffffffffffffffff167fb447b075df31e77b70e0b47900bf05f6bb085e2b37db217bdba293c96708eaef6000806040516117b492919061325d565b60405180910390a2565b6000600460008373ffffffffffffffffffffffffffffffffffffffff1673ffffffffffffffffffffffffffffffffffffffff16815260200190815260200160002060009054906101000a900467ffffffffffffffff169050919050565b60028060003373ffffffffffffffffffffffffffffffffffffffff1673ffffffffffffffffffffffffffffffffffffffff16815260200190815260200160002060009054906101000a900460ff1660ff161461187657600080fd5b600760089054906101000a900460ff166118c5576040517f08c379a00000000000000000000000000000000000000000000000000000000081526004016118bc906132d2565b60405180910390fd5b600660008573ffffffffffffffffffffffffffffffffffffffff1673ffffffffffffffffffffffffffffffffffffffff16815260200190815260200160002054828260405160200161191892919061305b565b604051602081830303815290604052805190602001201461196e576040517f08c379a000000000000000000000000000000000000000000000000000000000815260040161196590613958565b60405180910390fd5b8267ffffffffffffffff16600460003373ffffffffffffffffffffffffffffffffffffffff1673ffffffffffffffffffffffffffffffffffffffff16815260200190815260200160002060009054906101000a900467ffffffffffffffff1667ffffffffffffffff161015611a18576040517f08c379a0000000000000000000000000000000000000000000000000000000008152600401611a0f906139c4565b60405180910390fd5b8167ffffffffffffffff168367ffffffffffffffff161115611a6f576040517f08c379a0000000000000000000000000000000000000000000000000000000008152600401611a6690613a30565b60405180910390fd5b600033905060008173ffffffffffffffffffffffffffffffffffffffff16838667ffffffffffffffff16611aa391906130f3565b604051611aaf90613166565b60006040518083038185875af1925050503d8060008114611aec576040519150601f19603f3d011682016040523d82523d6000602084013e611af1565b606091505b5050905080611b35576040517f08c379a0000000000000000000000000000000000000000000000000000000008152600401611b2c906131c7565b60405180910390fd5b84600460003373ffffffffffffffffffffffffffffffffffffffff1673ffffffffffffffffffffffffffffffffffffffff16815260200190815260200160002060008282829054906101000a900467ffffffffffffffff16611b979190612f1b565b92506101000a81548167ffffffffffffffff021916908367ffffffffffffffff16021790555084600460008873ffffffffffffffffffffffffffffffffffffffff1673ffffffffffffffffffffffffffffffffffffffff16815260200190815260200160002060008282829054906101000a900467ffffffffffffffff16611c1f9190612f57565b92506101000a81548167ffffffffffffffff021916908367ffffffffffffffff16021790555060008585611c539190612f1b565b905060008167ffffffffffffffff1603611d04576000801b600660008973ffffffffffffffffffffffffffffffffffffffff1673ffffffffffffffffffffffffffffffffffffffff168152602001908152602001600020819055508673ffffffffffffffffffffffffffffffffffffffff167f531329981aec67b349deec08dbaf6b78bf267185fd02a5cce08f5a702d43e53b826000604051611cf7929190613877565b60405180910390a2611dc1565b8084604051602001611d1792919061305b565b60405160208183030381529060405280519060200120600660008973ffffffffffffffffffffffffffffffffffffffff1673ffffffffffffffffffffffffffffffffffffffff168152602001908152602001600020819055508673ffffffffffffffffffffffffffffffffffffffff167f531329981aec67b349deec08dbaf6b78bf267185fd02a5cce08f5a702d43e53b8286604051611db89291906133ca565b60405180910390a25b8673ffffffffffffffffffffffffffffffffffffffff163373ffffffffffffffffffffffffffffffffffffffff167f29698b260c7548225598835e7a364fdd8848dbe638fe7c8321ade0bb288a3f578887604051611e209291906133ca565b60405180910390a350505050505050565b60008060009054906101000a900473ffffffffffffffffffffffffffffffffffffffff1673ffffffffffffffffffffffffffffffffffffffff163373ffffffffffffffffffffffffffffffffffffffff1614905090565b611e90611e31565b611e9957600080fd5b600073ffffffffffffffffffffffffffffffffffffffff1660008054906101000a900473ffffffffffffffffffffffffffffffffffffffff1673ffffffffffffffffffffffffffffffffffffffff167f8fcbba9525bf241e39cf6abc66193b18a47f114f0be2ea61e7b32a5fa64b5baa60405160405180910390a360008060006101000a81548173ffffffffffffffffffffffffffffffffffffffff021916908373ffffffffffffffffffffffffffffffffffffffff160217905550565b6000600260008373ffffffffffffffffffffffffffffffffffffffff1673ffffffffffffffffffffffffffffffffffffffff16815260200190815260200160002060009054906101000a900460ff169050919050565b6060600160008373ffffffffffffffffffffffffffffffffffffffff1673ffffffffffffffffffffffffffffffffffffffff1681526020019081526020016000208054611ff99061348e565b80601f01602080910402602001604051908101604052809291908181526020018280546120259061348e565b80156120725780601f1061204757610100808354040283529160200191612072565b820191906000526020600020905b81548152906001019060200180831161205557829003601f168201915b50505050509050919050565b600047905090565b61208e611e31565b61209757600080fd5b60001515600760089054906101000a900460ff161515146120ed576040517f08c379a00000000000000000000000000000000000000000000000000000000081526004016120e490613a9c565b60405180910390fd5b600033905060008173ffffffffffffffffffffffffffffffffffffffff1661211361207e565b60405161211f90613166565b60006040518083038185875af1925050503d806000811461215c576040519150601f19603f3d011682016040523d82523d6000602084013e612161565b606091505b50509050806121a5576040517f08c379a000000000000000000000000000000000000000000000000000000000815260040161219c906131c7565b60405180910390fd5b5050565b6121b1611e31565b6121ba57600080fd5b80600260008473ffffffffffffffffffffffffffffffffffffffff1673ffffffffffffffffffffffffffffffffffffffff16815260200190815260200160002060006101000a81548160ff021916908360ff1602179055508060ff168273ffffffffffffffffffffffffffffffffffffffff167f5644960947ebbe0066bfd97d6481b4e13e2f3d45d0821c3c73cc02190c6490e160405160405180910390a35050565b60028060003373ffffffffffffffffffffffffffffffffffffffff1673ffffffffffffffffffffffffffffffffffffffff16815260200190815260200160002060009054906101000a900460ff1660ff16146122b857600080fd5b600760089054906101000a900460ff16612307576040517f08c379a00000000000000000000000000000000000000000000000000000000081526004016122fe906132d2565b60405180910390fd5b808267ffffffffffffffff1661231d91906130f3565b34101561235f576040517f08c379a000000000000000000000000000000000000000000000000000000000815260040161235690613b08565b60405180910390fd5b6000801b600660003373ffffffffffffffffffffffffffffffffffffffff1673ffffffffffffffffffffffffffffffffffffffff16815260200190815260200160002054146123e3576040517f08c379a00000000000000000000000000000000000000000000000000000000081526004016123da90613b74565b60405180910390fd5b81816040516020016123f692919061305b565b60405160208183030381529060405280519060200120600660003373ffffffffffffffffffffffffffffffffffffffff1673ffffffffffffffffffffffffffffffffffffffff168152602001908152602001600020819055503373ffffffffffffffffffffffffffffffffffffffff167f531329981aec67b349deec08dbaf6b78bf267185fd02a5cce08f5a702d43e53b83836040516124979291906133ca565b60405180910390a25050565b6000600760089054906101000a900460ff16905090565b6124c2611e31565b6124cb57600080fd5b6124d4816124d7565b50565b600073ffffffffffffffffffffffffffffffffffffffff168173ffffffffffffffffffffffffffffffffffffffff160361251057600080fd5b8073ffffffffffffffffffffffffffffffffffffffff1660008054906101000a900473ffffffffffffffffffffffffffffffffffffffff1673ffffffffffffffffffffffffffffffffffffffff167f8fcbba9525bf241e39cf6abc66193b18a47f114f0be2ea61e7b32a5fa64b5baa60405160405180910390a3806000806101000a81548173ffffffffffffffffffffffffffffffffffffffff021916908373ffffffffffffffffffffffffffffffffffffffff16021790555050565b6000604051905090565b600080fd5b600080fd5b60008115159050919050565b6125f6816125e1565b811461260157600080fd5b50565b600081359050612613816125ed565b92915050565b60006020828403121561262f5761262e6125d7565b5b600061263d84828501612604565b91505092915050565b600080fd5b6000601f19601f8301169050919050565b7f4e487b7100000000000000000000000000000000000000000000000000000000600052604160045260246000fd5b6126948261264b565b810181811067ffffffffffffffff821117156126b3576126b261265c565b5b80604052505050565b60006126c66125cd565b90506126d2828261268b565b919050565b600067ffffffffffffffff8211156126f2576126f161265c565b5b602082029050602081019050919050565b600080fd5b600073ffffffffffffffffffffffffffffffffffffffff82169050919050565b600061273382612708565b9050919050565b61274381612728565b811461274e57600080fd5b50565b6000813590506127608161273a565b92915050565b6000612779612774846126d7565b6126bc565b9050808382526020820190506020840283018581111561279c5761279b612703565b5b835b818110156127c557806127b18882612751565b84526020840193505060208101905061279e565b5050509392505050565b600082601f8301126127e4576127e3612646565b5b81356127f4848260208601612766565b91505092915050565b600060ff82169050919050565b612813816127fd565b811461281e57600080fd5b50565b6000813590506128308161280a565b92915050565b60008060006060848603121561284f5761284e6125d7565b5b600084013567ffffffffffffffff81111561286d5761286c6125dc565b5b612879868287016127cf565b935050602061288a86828701612821565b925050604061289b86828701612821565b9150509250925092565b600067ffffffffffffffff82169050919050565b6128c2816128a5565b81146128cd57600080fd5b50565b6000813590506128df816128b9565b92915050565b6000819050919050565b6128f8816128e5565b811461290357600080fd5b50565b600081359050612915816128ef565b92915050565b60008060408385031215612932576129316125d7565b5b6000612940858286016128d0565b925050602061295185828601612906565b9150509250929050565b600080fd5b600067ffffffffffffffff82111561297b5761297a61265c565b5b6129848261264b565b9050602081019050919050565b82818337600083830152505050565b60006129b36129ae84612960565b6126bc565b9050828152602081018484840111156129cf576129ce61295b565b5b6129da848285612991565b509392505050565b600082601f8301126129f7576129f6612646565b5b8135612a078482602086016129a0565b91505092915050565b60008060408385031215612a2757612a266125d7565b5b600083013567ffffffffffffffff811115612a4557612a446125dc565b5b612a51858286016129e2565b9250506020612a62858286016128d0565b9150509250929050565b6000612a7782612708565b9050919050565b612a8781612a6c565b8114612a9257600080fd5b50565b600081359050612aa481612a7e565b92915050565b60008060008060808587031215612ac457612ac36125d7565b5b6000612ad287828801612a95565b9450506020612ae3878288016128d0565b9350506040612af4878288016128d0565b9250506060612b0587828801612906565b91505092959194509250565b600060208284031215612b2757612b266125d7565b5b6000612b3584828501612751565b91505092915050565b612b47816128a5565b82525050565b6000602082019050612b626000830184612b3e565b92915050565b60008060408385031215612b7f57612b7e6125d7565b5b6000612b8d85828601612751565b925050602083013567ffffffffffffffff811115612bae57612bad6125dc565b5b612bba858286016129e2565b9150509250929050565b612bcd81612728565b82525050565b6000602082019050612be86000830184612bc4565b92915050565b60008060008060808587031215612c0857612c076125d7565b5b6000612c1687828801612751565b9450506020612c27878288016128d0565b9350506040612c38878288016128d0565b9250506060612c4987828801612906565b91505092959194509250565b612c5e816125e1565b82525050565b6000602082019050612c796000830184612c55565b92915050565b612c88816127fd565b82525050565b6000602082019050612ca36000830184612c7f565b92915050565b600081519050919050565b600082825260208201905092915050565b60005b83811015612ce3578082015181840152602081019050612cc8565b60008484015250505050565b6000612cfa82612ca9565b612d048185612cb4565b9350612d14818560208601612cc5565b612d1d8161264b565b840191505092915050565b60006020820190508181036000830152612d428184612cef565b905092915050565b612d53816128e5565b82525050565b6000602082019050612d6e6000830184612d4a565b92915050565b60008060408385031215612d8b57612d8a6125d7565b5b6000612d9985828601612751565b9250506020612daa85828601612821565b9150509250929050565b7f4e487b7100000000000000000000000000000000000000000000000000000000600052603260045260246000fd5b7f4533000000000000000000000000000000000000000000000000000000000000600082015250565b6000612e19600283612cb4565b9150612e2482612de3565b602082019050919050565b60006020820190508181036000830152612e4881612e0c565b9050919050565b7f4e487b7100000000000000000000000000000000000000000000000000000000600052601160045260246000fd5b6000612e89826128a5565b9150612e94836128a5565b9250828202612ea2816128a5565b9150808214612eb457612eb3612e4f565b5b5092915050565b7f4e487b7100000000000000000000000000000000000000000000000000000000600052601260045260246000fd5b6000612ef5826128a5565b9150612f00836128a5565b925082612f1057612f0f612ebb565b5b828204905092915050565b6000612f26826128a5565b9150612f31836128a5565b9250828203905067ffffffffffffffff811115612f5157612f50612e4f565b5b92915050565b6000612f62826128a5565b9150612f6d836128a5565b9250828201905067ffffffffffffffff811115612f8d57612f8c612e4f565b5b92915050565b6000612f9e826128e5565b91507fffffffffffffffffffffffffffffffffffffffffffffffffffffffffffffffff8203612fd057612fcf612e4f565b5b600182019050919050565b6000604082019050612ff06000830185612c7f565b612ffd6020830184612c7f565b9392505050565b60008160c01b9050919050565b600061301c82613004565b9050919050565b61303461302f826128a5565b613011565b82525050565b6000819050919050565b613055613050826128e5565b61303a565b82525050565b60006130678285613023565b6008820191506130778284613044565b6020820191508190509392505050565b7f4531330000000000000000000000000000000000000000000000000000000000600082015250565b60006130bd600383612cb4565b91506130c882613087565b602082019050919050565b600060208201905081810360008301526130ec816130b0565b9050919050565b60006130fe826128e5565b9150613109836128e5565b9250828202613117816128e5565b9150828204841483151761312e5761312d612e4f565b5b5092915050565b600081905092915050565b50565b6000613150600083613135565b915061315b82613140565b600082019050919050565b600061317182613143565b9150819050919050565b7f4531300000000000000000000000000000000000000000000000000000000000600082015250565b60006131b1600383612cb4565b91506131bc8261317b565b602082019050919050565b600060208201905081810360008301526131e0816131a4565b9050919050565b6000819050919050565b6000819050919050565b600061321661321161320c846131e7565b6131f1565b6128a5565b9050919050565b613226816131fb565b82525050565b600061324761324261323d846131e7565b6131f1565b6128e5565b9050919050565b6132578161322c565b82525050565b6000604082019050613272600083018561321d565b61327f602083018461324e565b9392505050565b7f4534000000000000000000000000000000000000000000000000000000000000600082015250565b60006132bc600283612cb4565b91506132c782613286565b602082019050919050565b600060208201905081810360008301526132eb816132af565b9050919050565b7f4535000000000000000000000000000000000000000000000000000000000000600082015250565b6000613328600283612cb4565b9150613333826132f2565b602082019050919050565b600060208201905081810360008301526133578161331b565b9050919050565b7f4536000000000000000000000000000000000000000000000000000000000000600082015250565b6000613394600283612cb4565b915061339f8261335e565b602082019050919050565b600060208201905081810360008301526133c381613387565b9050919050565b60006040820190506133df6000830185612b3e565b6133ec6020830184612d4a565b9392505050565b7f4532000000000000000000000000000000000000000000000000000000000000600082015250565b6000613429600283612cb4565b9150613434826133f3565b602082019050919050565b600060208201905081810360008301526134588161341c565b9050919050565b7f4e487b7100000000000000000000000000000000000000000000000000000000600052602260045260246000fd5b600060028204905060018216806134a657607f821691505b6020821081036134b9576134b861345f565b5b50919050565b60008190508160005260206000209050919050565b60006020601f8301049050919050565b600082821b905092915050565b6000600883026135217fffffffffffffffffffffffffffffffffffffffffffffffffffffffffffffffff826134e4565b61352b86836134e4565b95508019841693508086168417925050509392505050565b600061355e613559613554846128e5565b6131f1565b6128e5565b9050919050565b6000819050919050565b61357883613543565b61358c61358482613565565b8484546134f1565b825550505050565b600090565b6135a1613594565b6135ac81848461356f565b505050565b5b818110156135d0576135c5600082613599565b6001810190506135b2565b5050565b601f821115613615576135e6816134bf565b6135ef846134d4565b810160208510156135fe578190505b61361261360a856134d4565b8301826135b1565b50505b505050565b600082821c905092915050565b60006136386000198460080261361a565b1980831691505092915050565b60006136518383613627565b9150826002028217905092915050565b61366a82612ca9565b67ffffffffffffffff8111156136835761368261265c565b5b61368d825461348e565b6136988282856135d4565b600060209050601f8311600181146136cb57600084156136b9578287015190505b6136c38582613645565b86555061372b565b601f1984166136d9866134bf565b60005b82811015613701578489015182556001820191506020850194506020810190506136dc565b8683101561371e578489015161371a601f891682613627565b8355505b6001600288020188555050505b505050505050565b7f4537000000000000000000000000000000000000000000000000000000000000600082015250565b6000613769600283612cb4565b915061377482613733565b602082019050919050565b600060208201905081810360008301526137988161375c565b9050919050565b7f4538000000000000000000000000000000000000000000000000000000000000600082015250565b60006137d5600283612cb4565b91506137e08261379f565b602082019050919050565b60006020820190508181036000830152613804816137c8565b9050919050565b7f4539000000000000000000000000000000000000000000000000000000000000600082015250565b6000613841600283612cb4565b915061384c8261380b565b602082019050919050565b6000602082019050818103600083015261387081613834565b9050919050565b600060408201905061388c6000830185612b3e565b613899602083018461324e565b9392505050565b7f4531000000000000000000000000000000000000000000000000000000000000600082015250565b60006138d6600283612cb4565b91506138e1826138a0565b602082019050919050565b60006020820190508181036000830152613905816138c9565b9050919050565b7f4531340000000000000000000000000000000000000000000000000000000000600082015250565b6000613942600383612cb4565b915061394d8261390c565b602082019050919050565b6000602082019050818103600083015261397181613935565b9050919050565b7f4531360000000000000000000000000000000000000000000000000000000000600082015250565b60006139ae600383612cb4565b91506139b982613978565b602082019050919050565b600060208201905081810360008301526139dd816139a1565b9050919050565b7f4531350000000000000000000000000000000000000000000000000000000000600082015250565b6000613a1a600383612cb4565b9150613a25826139e4565b602082019050919050565b60006020820190508181036000830152613a4981613a0d565b9050919050565b7f4531370000000000000000000000000000000000000000000000000000000000600082015250565b6000613a86600383612cb4565b9150613a9182613a50565b602082019050919050565b60006020820190508181036000830152613ab581613a79565b9050919050565b7f4531310000000000000000000000000000000000000000000000000000000000600082015250565b6000613af2600383612cb4565b9150613afd82613abc565b602082019050919050565b60006020820190508181036000830152613b2181613ae5565b9050919050565b7f4531320000000000000000000000000000000000000000000000000000000000600082015250565b6000613b5e600383612cb4565b9150613b6982613b28565b602082019050919050565b60006020820190508181036000830152613b8d81613b51565b905091905056fea264697066735822122058c0db5c928ae5f7fc94f902b2424e0a50dcbee62f24e0fc22bc1e0a070f6cf964736f6c63430008110033",
  "immutableReferences": {},
  "source": "// SPDX-License-Identifier: MIT\npragma solidity ^0.8.17;\nimport \"./SignUpContract.sol\";\n\ncontract TradingPlatform is SignUpContract{\n    mapping (address => uint64) private allowance;\n    mapping (address => bytes32) private sell_orders;\n    mapping (address => bytes32) private buy_orders;\n\n    uint64 private total_allowance;\n\n    bool private trading_open;\n\n    event sell_order_event (address indexed seller_address,\n        uint64 amount, uint256 price);\n    \n    event buy_order_event(address indexed buyer_address,\n        uint64 amount, uint256 price);\n\n    event buy_event(address indexed seller_address, address indexed buyer_address, \n        uint64 amount, uint256 price);\n\n    event trading_status_changed(bool indexed new_status);\n\n    event minted( uint8 trading_period_length, uint8 target_reduction, uint256 indexed timestamp);\n\n    function set_trading_open (bool _status) public only_owner {\n        trading_open = _status;\n        emit trading_status_changed(_status);\n    }\n\n\n    function get_trading_open () external view returns (bool){\n        return trading_open;\n    }\n\n\n    function get_allowance (address _address) external view returns (uint64) {\n        return allowance[_address];\n    }\n\n\n    function mint (address[] memory _pending_addresses, uint8 _trading_period_length, uint8 _target_reduction) external only_owner {\n        uint64 total = 0;\n        uint64 company_allowance = 0;\n        for (uint i = 0; i < _pending_addresses.length; i++) {\n            require(get_account_status(_pending_addresses[i]) == 2, \"E3\");\n            company_allowance = get_account_base_year_emissions(_pending_addresses[i]);\n            company_allowance = company_allowance - ((company_allowance * _target_reduction) / 100);\n            company_allowance *= _trading_period_length;\n            allowance[_pending_addresses[i]] += company_allowance;\n            total += company_allowance;\n        }\n        uint64 spare_allowance = (total * 5) / 100;\n        total += spare_allowance;\n        allowance[msg.sender] += spare_allowance;\n        total_allowance += total;\n        set_trading_open(true);\n        emit minted(_trading_period_length, _target_reduction, block.timestamp);\n    }\n\n\n    function create_sell_order (uint64 _amount, uint256 _price) external is_approved {\n        require(trading_open, \"E4\");\n        require(allowance[msg.sender] >= _amount, \"E5\");\n        require(sell_orders[msg.sender] == 0, \"E6\");\n        sell_orders[msg.sender] = keccak256(abi.encodePacked(_amount, _price));\n        emit sell_order_event(msg.sender, _amount, _price);\n    }\n\n\n    function delete_sell_order () external {\n        require(sell_orders[msg.sender] != 0);\n        sell_orders[msg.sender] = 0;\n        emit sell_order_event(msg.sender, 0, 0);\n    }\n\n\n    function buy (address payable _seller, uint64 _amount, uint64 _on_sale, uint256 _price) external payable is_approved {\n        require(trading_open, \"E4\");\n        require(keccak256(abi.encodePacked(_on_sale, _price)) == sell_orders[_seller], \"E7\");\n        require(_amount <= _on_sale, \"E8\");\n        require(msg.value >= (_amount * _price), \"E9\");\n\n        (bool sent,) = _seller.call{value: msg.value}(\"\");\n        require(sent, \"E10\");\n\n        allowance[_seller] -= _amount;\n        allowance[msg.sender] += _amount;\n        uint64 amount_left = _on_sale - _amount;\n\n        if(amount_left == 0) {\n            sell_orders[_seller] = 0;\n            emit sell_order_event(_seller, amount_left, 0);\n        } else {\n            sell_orders[_seller] = keccak256(abi.encodePacked(amount_left, _price));\n            emit sell_order_event(_seller, amount_left, _price);\n        }\n\n        emit buy_event(_seller, msg.sender, _amount, _price);\n    }\n\n\n    function create_buy_order (uint64 _amount, uint256 _price) external payable is_approved {\n        require(trading_open, \"E4\");\n        require(msg.value >= (_amount * _price), \"E11\");\n        require(buy_orders[msg.sender] == 0, \"E12\");\n\n        buy_orders[msg.sender] = keccak256(abi.encodePacked(_amount, _price));\n\n        emit buy_order_event(msg.sender, _amount, _price);\n    }\n\n\n    function delete_buy_order (uint64 _amount, uint256 _price) external {\n        require(keccak256(abi.encodePacked(_amount, _price)) == buy_orders[msg.sender], \"E13\");\n\n        address payable to = payable(msg.sender);\n        (bool sent,) = to.call{value: (_amount * _price)}(\"\");\n        require(sent, \"E10\");\n        \n        buy_orders[msg.sender] = 0;\n        emit buy_order_event(msg.sender, 0, 0);\n    }\n\n\n    function sell (address _buyer, uint64 _amount, uint64 _on_request, uint256 _price) external is_approved {\n        require(trading_open, \"E4\");\n        require(keccak256(abi.encodePacked(_on_request, _price)) == buy_orders[_buyer], \"E14\");\n        require(allowance[msg.sender] >= _amount, \"E16\");\n        require(_amount <= _on_request, \"E15\");\n\n        address payable to = payable(msg.sender);\n        (bool sent,) = to.call{value: (_amount * _price)}(\"\");\n        require(sent, \"E10\");\n\n        allowance[msg.sender] -= _amount;\n        allowance[_buyer] += _amount;\n\n        uint64 amount_left = _on_request - _amount;\n\n        if(amount_left == 0) {\n            buy_orders[_buyer] = 0;\n            emit buy_order_event(_buyer, amount_left, 0);\n        } else {\n            buy_orders[_buyer] = keccak256(abi.encodePacked(amount_left, _price));\n            emit buy_order_event(_buyer, amount_left, _price);\n        }\n\n        emit buy_event(msg.sender, _buyer, _amount, _price);\n    }\n\n\n    function get_balance() public view returns(uint) {\n        return address(this).balance;\n    }\n\n\n    function withdraw_eth_after_trading_close () external only_owner {\n        require(trading_open == false, \"E17\");\n        address payable to = payable(msg.sender);\n        (bool sent,) = to.call{value: get_balance()}(\"\");\n        require(sent, \"E10\");\n    }\n\n}",
  "sourcePath": "/Users/davidcandreanu/Desktop/Year 4 Uni/Personal project/CarbonZero/carbon_zero/src/truffle/contracts/TradingPlatform.sol",
  "compiler": {
    "name": "solc",
    "version": "0.8.17+commit.8df45f5f.Emscripten.clang"
  },
  "schemaVersion": "3.4.12",
  "updatedAt": "2023-03-22T00:25:55.774Z",
  "networkType": "ethereum",
  "devdoc": {
    "kind": "dev",
    "methods": {
      "is_owner()": {
        "returns": {
          "_0": "true if `msg.sender` is the owner of the contract."
        }
      },
      "owner()": {
        "returns": {
          "_0": "the address of the owner."
        }
      },
      "renounce_ownership()": {
        "details": "Allows the current owner to relinquish control of the contract."
      },
      "transfer_ownership(address)": {
        "details": "Allows the current owner to transfer control of the contract to a newOwner.",
        "params": {
          "new_owner": "The address to transfer ownership to."
        }
      }
    },
    "version": 1
  },
  "userdoc": {
    "kind": "user",
    "methods": {
      "renounce_ownership()": {
        "notice": "Renouncing to ownership will leave the contract without an owner. It will not be possible to call the functions with the `onlyOwner` modifier anymore."
      }
    },
    "version": 1
  }
}